:020000040800F2
:10000000384800207D020008AB3300086D2A000844
:10001000A933000803080008313C00080000000074
:10002000000000000000000000000000C101000806
:100030002D0A000800000000150200088F34000897
:100040003D3C0008CD3300089702000897020008E5
:10005000970200089702000897020008970200081C
:10006000970200089702000897020008970200080C
:1000700097020008970200089702000897020008FC
:1000800059090008650900089702000811080008CE
:100090000508000897020008970200089702000868
:1000A00097020008970200089702000897020008CC
:1000B0009702000889350008953500089702000866
:1000C00097020008970200089702000897020008AC
:1000D0009702000897020008F13B00089702000809
:1000E000970200089702000897020008970200088C
:1000F000970200089702000897020008970200087C
:10010000970200089702000897020008970200086B
:10011000970200089702000897020008970200085B
:10012000970200087109000897020008970200086A
:1001300097020008970200089702000829080008A3
:100140001D0800089702000897020008970200089F
:10015000970200087D09000897020008970200082E
:10016000970200089702000897020008970200080B
:10017000970200089702000897020008000000009C
:1001800097020008970200089702000897020008EB
:1001900097020008970200089702000897020008DB
:1001A000000000000000000097020008DFF80CD0FB
:1001B00000F0EAFA00480047053D000838480020F2
:1001C0002B4B19680868B0E8F04F80F30988BFF33B
:1001D0006F8F4FF0000080F311887047000000001F
:1001E00006480068006880F3088862B661B6BFF30D
:1001F0004F8FBFF36F8F00DF00BF00BF08ED00E03F
:10020000DFF80C00016841F470010160704700BF25
:1002100088ED00E0EFF30980BFF36F8F144B1A688D
:100220001EF0100F08BF20ED108A20E9F04F10607B
:1002300008B44FF0500080F31188BFF34F8FBFF325
:100240006F8F04F009FC4FF0000080F3118808BCA8
:1002500019680868B0E8F04F1EF0100F08BFB0EC46
:10026000108A80F30988BFF36F8F704700BF00BF0B
:1002700064000020EFF305807047000006488047C7
:1002800006480047FEE7FEE7FEE7FEE7FEE7FEE77B
:10029000FEE7FEE7FEE7FEE735350008AD010008A2
:1002A0002DE9F05F0546002092469B4688460646AB
:1002B000814640241BE0284641464746224600F03E
:1002C000ACF953465A46C01A914110D3114618460C
:1002D000224600F093F92D1A67EB01084F4622469B
:1002E0000120002100F08AF917EB00094E41201E81
:1002F000A4F10104DFDC484631462A464346BDE806
:10030000F09F40EA01039B0703D009E008C9121FD0
:1003100008C0042AFAD203E011F8013B00F8013BBF
:10032000521EF9D27047D2B201E000F8012B491EEB
:10033000FBD270470022F6E710B513460A46044682
:100340001946FFF7F0FF204610BD2DE9FE4F80460D
:1003500081EA0300C00F0C46009021F0004123F019
:100360000045B8EB0200A94105D24046214690461F
:100370001C460B46024623F00040104347D0270D91
:10038000C7F30A00C3F30A510290401A01904028B3
:100390006BDAC3F3130040F4801B0098924620B13F
:1003A0000023D2EB030A63EB0B0B01985946C0F113
:1003B0004002504600F022F906460D465046594686
:1003C000019A00F03AF910EB08006141002487EA35
:1003D000115284EAE7731A4340D0009A62B3019A3B
:1003E000012A4FEA075215DC001B61EB02014FF0B6
:1003F000004202EA0752CDE90042001C41F580119B
:1004000032462B4600F071F903B0BDE8F08F40464C
:100410002146F9E7001B61EB0201001C41F5801346
:1004200000185B412018A2F5001747EB030140EAD2
:10043000D570B6196D4111E06D084FEA360645EAF0
:10044000C0754FEA0752001B61EB0201001C41F529
:10045000801149084FEA30000019514132462B46BD
:1004600003B0BDE8F04F00F031B900980122400020
:100470000023D0EB020263EBE073009821464FEAC1
:10048000E074B8EB000061EB0401E9E783F000439E
:100490005BE781F0004158E72DE9FE4F81EA030454
:1004A00004F0004421F0004100944FF0000B23F0D1
:1004B000004350EA01045ED052EA03045BD0C3F368
:1004C0000A54C1F30A552C44A4F2F3340194A0FB5E
:1004D0000254C1F3130141F48011C3F3130343F435
:1004E000801301FB024400FB034E840A970A44EA8E
:1004F000815447EA8357A4FB076802958D0A05FBE0
:1005000007854FEA932C04FB0C542705029D4FEA04
:10051000065847EA1637B5EB08056EEB070C870E51
:10052000920E47EA811742EA8312A7FB0201B6EB5B
:100530000B0164EB00042B0D43EA0C335E1844EB13
:100540001C50DA465146E7FB0201C5F313044FEA9B
:100550000B3343EA14534FEA0432019C43EA060387
:10056000A4F10C040294009CCDE900B400F0BDF8A5
:1005700003B0BDE8F08F00200146F9E70EB5C10FCA
:1005800080EAE0700844CA07002140F233438DE856
:100590000E000A460B4600F0A8F803B000BD00F0BC
:1005A000004230F000400AD0C10D01F56071C0F387
:1005B000160042EA0151C20840071143704700206B
:1005C0000146704701F0004330B421F0004150EA89
:1005D000010206D00A0DA2F56072C1F31301002AD0
:1005E00002DC30BC00207047440F44EAC104C10063
:1005F000E01830BC00EBC25000F031B8202A04DB18
:10060000203A00FA02F1002070479140C2F1200325
:1006100020FA03F3194390407047202A04DB203A64
:1006200021FA02F00021704721FA02F3D040C2F112
:1006300020029140084319467047202A06DBCB1759
:10064000203A41FA02F043EAE07306E041FA02F38D
:10065000D040C2F12002914008431946704700295A
:10066000A8BF7047401C490008BF20F00100704738
:1006700010B4B0FA80FC00FA0CF050EA010404BF98
:1006800010BC704749B1CCF1200421FA04F411FAEE
:100690000CF118BF012121430843A3EB0C01CB1D32
:1006A0004FEA00614FEA102042BF002010BC7047A3
:1006B00000EBC35010440029A4BF10BC7047401C7D
:1006C000490008BF20F0010010BC704710B5141E8F
:1006D00073F1000408DA401C41F1000192185B41FB
:1006E0001A4301D120F0010010BD2DE9F04D9246D2
:1006F0009B4611B1B1FA81F202E0B0FA80F22032E9
:100700009046FFF77BFF04460F4640EA0A0041EAA5
:100710000B0153465A46084313D0114653EA0100D1
:1007200019D0C8F140025046FFF777FF05460E4644
:10073000504659464246FFF761FF084305D0012065
:1007400004E020463946BDE8F08D0020054346EA26
:10075000E0762C4337430A986305E40AA0EB0800CF
:100760000022FD0A44EA47540A3002D5002001461F
:10077000E9E7010510196941DDE9084500196941FA
:10078000BDE8F04DA2E70000064C074D06E0E0682A
:1007900040F0010394E8070098471034AC42F6D3C8
:1007A000FFF708FDB44F0008D44F000870B58C184F
:1007B00010F8015B15F0070301D110F8013B2A1175
:1007C00006D110F8012B03E010F8016B01F8016B62
:1007D0005B1EF9D12B0705D40023521E0DD401F85E
:1007E000013BFAE710F8013BCB1A921C03E013F827
:1007F000015B01F8015B521EF9D5A142D8D300205C
:1008000070BDFEE7014800F099B900004C010020DE
:10081000014800F093B900004C010020014800F0AD
:100820008DB9000090010020014800F087B9000058
:100830009001002010B5002958D0826B4FF4D87376
:10084000046803EB0113E45814F004049460046892
:10085000E4584DD0E40854600468E35803F0020300
:10086000D3604FF4DA73046803EB0113E45804F027
:100870000F04146111620468E358C3F30723D361C2
:100880004FF4DC73046803EB0113E4581475046837
:10089000E458240A54750468E458240C94750468D8
:1008A000E3581B0ED3754FF4DE73046803EB01139A
:1008B000E45814760468E458240A54760468E4582A
:1008C000240C94760468E3581B0ED3760368202228
:1008D00089B11A610268536923F05003536190F89B
:1008E0003C20222A0DD0322A0BD00FE0426BA5E724
:1008F000640D1460B0E7DA600268536923F00A03FC
:10090000ECE70268536923F40F4353611222012379
:10091000002990F83C1006D0522914D0622915D035
:10092000722906D114E042290DD0622907D072291C
:1009300007D080F83C3000F08DFB002010BD322144
:1009400007E0522105E080F83C20F4E7222100E096
:10095000422180F83C10EEE7014800F0F3BC0000B3
:10096000EC030020014800F0EDBC00004C04002026
:10097000014800F0E7BC0000AC040020014800F092
:10098000E1BC00000C05002001681823CAB2103A2F
:10099000B2FBF3F2054B6FF30901032A9B5CC365BD
:1009A00000D9091D8165084670470000B84E00084F
:1009B00010B5014600208B698A6A4FF0C07453B1AC
:1009C000B3F5005F15D072B1012A0CD0022A0AD00B
:1009D000032A09D104E01AB1012A06D0022A03D160
:1009E000C96AC90100D5012010BDC96AA142FAD067
:1009F00010BD002AF7D0012AF2D0022AF3D0032A30
:100A0000F3D010BD30B50468256825F48025256035
:100A1000046863608368402B036803D099600068B2
:100A2000C26030BD9A600068C16030BD7047000090
:100A300010B5087D012282403A48D0F8003243F0D8
:100A40000103C0F80032D0F8003223F47C53C0F820
:100A50000032D0F800324C6A43EA0423C0F8003276
:100A6000D0F81C329343C0F81C32CB69B3B9D0F82C
:100A70000C329343C0F80C328C894B6864F31F43EB
:100A80004C6900EBC404C4F840320C890B6864F371
:100A90001F434C6900EBC404C4F84432CB69012BFA
:100AA00016D1D0F80C321343C0F80C320C884B68C6
:100AB00064F31F434C6900EBC404C4F840320C8952
:100AC000CB6864F31F434C6900EBC404C4F84432A0
:100AD0008B69002BD0F8043205D01343C0F80432E0
:100AE0000B6913B106E09343F8E7D0F8143293434F
:100AF000C0F814320B69012B04D1D0F8143213431F
:100B0000C0F81432096A012904D1D0F81C1211432B
:100B1000C0F81C12D0F8001221F00101C0F8001238
:100B2000002010BD0064004003480068416941F0A6
:100B300002014161704700004C0100202DE9F041A5
:100B4000044600680026C1684269C1F30011C2F37F
:100B5000C002102311B10AB15E01C36020680169AF
:100B60004269C1F30011C2F3801219B112B146F407
:100B700080660361216848694FF00105C043C007E2
:100B80004ED18A687648904323D000228B687548FE
:100B9000984320D000238F687348B8431DD00020AD
:100BA0001A4302433CD088688A68C0F340008B68CF
:100BB000C2F34022C3F340431043184329D04A698B
:100BC000204622F001024A6194F83C10122906D016
:100BD0000AE00122DAE70123DDE70120E0E701680E
:100BE0004A6922F40F424A6190F83C10422908D029
:100BF000522908D0722908D080F83C5000F032FB0E
:100C000009E0222102E0322100E0622180F83C105C
:100C1000F4E746F4006620688168544A1143816015
:100C20002068C168406911F0030FC0F3400004D090
:100C300018B100212046FFF7FDFD206801694069D9
:100C400011F0030FC0F3001004D018B101212046A9
:100C5000FFF7F0FD206C3043206420688169C1F308
:100C6000000241694369C1F30021C3F3C0332AB1D3
:100C700021B11BB1216C41F0010121648169C1F3F3
:100C8000400241694369C1F34021C3F3C0332AB133
:100C900021B11BB1216C41F0020121648169C1F3D2
:100CA000800241694369C1F38021C3F3C0332AB193
:100CB00021B11BB1216C41F004012164816911F063
:100CC000700F08D0002142694369C2F3C022C3F308
:100CD000C03311B121E00121F5E7F2B1EBB1816937
:100CE00001F0700140292FD006DC102909D02029FD
:100CF0000BD030290DD123E0502929D0602908D10B
:100D00002AE0216C41F0080102E0216C41F0100161
:100D10002164816921F070018161206C00280DD06F
:100D200021680420486084F83C502068416948F6F6
:100D30005B72914341612046FFF7F6FEBDE8F0810A
:100D4000216C41F02001E3E7216C41F04001DFE735
:100D5000216C41F08001DBE7216C41F48071D7E721
:100D6000030000040003000800000310190501003F
:100D70002DE9F04104004FF0000604D094F83C0047
:100D8000002518B107E00120BDE8F08184F83D504E
:100D9000204600F093F8022084F83C0020680168A7
:100DA00021F0020101602068016841F00101016049
:100DB00000F044FD07464FF0030804E000F03EFD5C
:100DC000C01B0A2862D820684068C007F6D0206897
:100DD0004168C90767D0A169012901683FD021F0A6
:100DE00080010160E0690128206801683AD021F0A3
:100DF00040010160206A01282068016835D021F097
:100E000020010160606A01282068016830D021F06B
:100E100010010160A06A0128206801682BD021F030
:100E200008010160E06A01282068016826D021F0ED
:100E300004010160D4E902010843D4E9041211431A
:100E400008436168491E08432168C8612068016839
:100E500021F00101016000F0F1FC07461BE041F0C8
:100E60008001BEE741F04001C3E741F02001C8E73F
:100E700041F01001CDE741F00801D2E741F0040153
:100E8000D7E700F0DBFCC01B0A2804D904F83C8F2C
:100E90000320657078E720684068C007F1D12068BA
:100EA0004068C00700D02EB12564012084F83C00C2
:100EB000002069E7042084F83C0064E7F0B5324B79
:100EC0000168DFF8C0C018680324022509262F4AEC
:100ED0000027401C87B0614521D11860012807D147
:100EE000106840F000701060106800F0007005900D
:100EF0008DE8B000CDE903466946254800F0A6FB21
:100F000000220821132000F03BFD132000F02CFDEF
:100F100000220721142000F033FD14202EE0DFF81A
:100F200074C061452CD1116841F080611160116875
:100F3000012801F080610591186007D1106840F028
:100F400000701060106800F0007005904FF4405081
:100F50008DE8A100CDE9034669460F4800F076FB15
:100F6000002209213F2000F00BFD3F2000F0FCFC97
:100F700000220821402000F003FD402000F0F4FC96
:100F800007B0F0BD0064004004000020403802407B
:100F9000000C0240006800400004024030B511B16E
:100FA000012924D00FE090F83C20222A27D090F885
:100FB0003C20422A23D090F83C20622A1FD090F88F
:100FC0003C20722A1BD090F83D20012A17D0012224
:100FD00080F83D20622490F83C20722389B1122AC7
:100FE00019D0222A1BD0422A1CD0322214E090F8B9
:100FF0003C20322A03D090F83C20522ADBD1022038
:1010000030BD122A05D0322A09D0522A0AD0222213
:1010100002E0422200E0522280F83C2004E080F806
:101020003C4001E080F83C300023036402685469CE
:1010300048F601752C43546180F83D300068002962
:10104000416904D041F050014161002030BD41F0C0
:101050000A01F9E700B5416B0968A1F201210729EE
:1010600017D2DFE801F004040404161611000C4A3C
:10107000C9B211700B4A01EB410102EB01120146AA
:10108000104602F00BFE04E001460648C03002F0B4
:10109000EBFD05480068416941F00201416100BD76
:1010A000A4000020AC4200204C0100202DE9F05F9C
:1010B0000E46016804468868400105D4886800012E
:1010C00002D48868C00070D594F83D0001280DD086
:1010D0004FF0010884F83D8094F83C00222808D0A5
:1010E000322808D062280ED0122005E00220BDE888
:1010F000F09F422000E0522084F83C0088684001C4
:1011000003D5002507E07220F6E78868000101D5C5
:10111000012500E002254FF4C07000EB05100A58CD
:1011200002F001020A50216B8A68EAB323681F5853
:101130001743CA68496842EAC1010F431F50216B37
:101140000A7C02F00F020A614FF4C271226801EBBF
:101150000511535823F00F03535022685358276B3F
:101160003F693B435350216B4FF4C47303EB0513AA
:101170000A7DD1F8151042EA01222168CA50216B7C
:101180004FF4C67303EB05130A7ED1F8191042EA37
:1011900001222168CA5021680A5842F001020A500F
:1011A00000F04CFB074601E007E050E04FF000097B
:1011B000DFF8A4A0DFF8A4B023E022681358CF68BA
:1011C00009883B4343EA41511150B8E7701C18D0DD
:1011D00026B100F033FBC01BB04212D9032084F8C3
:1011E0003C004DB1012D09D04FF40000216888600A
:1011F00084F83D9003207AE78020F7E74FF4004021
:10120000F4E78DB12068012D816812D0144888431D
:101210000028DBD194F83C0042280DD052280DD094
:10122000722812D040460AE0206881682AEA01004C
:10123000EEE72BEA0100EBE7222000E0322084F801
:101240003C0084F83D90002051E76220F7E704203D
:1012500084F83C0001204AE7030000040003000872
:1012600000000310704710B5040002D0607910B17F
:1012700006E0012010BD00202071204600F006F895
:101280000220607101206071002010BD08B5006867
:101290000649884208D10648016841F4805101603E
:1012A000006800F48050009008BD0000003002404B
:1012B000303802402DE9F0410446876D00F0BEFA57
:1012C000054694F835000026022806D08020606587
:1012D00084F834600120BDE8F0812068016821F0C5
:1012E000160101602068416921F080014161206C94
:1012F00008B9A06C20B12068016821F008010160E4
:101300002068016821F0010101600BE000F096FA0D
:10131000401B052806D92020606504F8346F03209F
:101320006070D8E720680068C007EFD194F85C10BF
:101330003F208840B86004F8346F012060700020BE
:10134000C9E700002DE9F84304464FF00009CDF845
:10135000009063484FF41651A56D0068B0FBF1F79B
:101360002E6894F85C20082101FA02F030420FD078
:101370002068026852070BD5026822F0040202605E
:1013800094F85C008140A960606D40F001006065E8
:1013900094F85C104FF0010808FA01F0304208D0D0
:1013A00021684969090604D5A860606D40F0020013
:1013B000606594F85C1004208840304208D02168B1
:1013C0000968890704D5A860606D40F00400606575
:1013D00094F85C1010208840304218D021680968C9
:1013E000090714D5A86020680168490304D500687E
:1013F000000308D5A16C07E00168C90503D40168A2
:1014000021F008010160216C09B12046884794F859
:101410005C1020208840304231D021680968C9061C
:101420002DD5A86094F8350005282068016806D0FD
:10143000490347D5006800031DD4616C1CE021F00E
:10144000160101602068416921F080014161206C32
:1014500008B9A06C20B12068016821F00801016082
:1014600094F85C103F208840A86084F8349084F899
:101470003580216D1FE0E16B09B120468847606D22
:1014800000282BD0606DC00714D0052084F83500EB
:101490002068016821F0010101600098401C009063
:1014A000B84203D820680068C007F6D184F83490A9
:1014B00084F83580E16C002910D001B02046BDE8E9
:1014C000F04308470168C905D5D4016821F010012F
:1014D000016084F8349084F83580CCE7BDE8F88367
:1014E000480100202DE9F041044600F0A7F9054627
:1014F0005CB1002684F83460022084F8350020684E
:10150000016821F0010101600DE00120BDE8F081DA
:1015100000F094F9401B052805D9202060650320C0
:1015200084F83500F2E720680068C007F0D1216830
:101530000A6820480240D4E901031843D4E903357E
:101540002B43184363691843A3691843E36918439D
:10155000236A18431043626A042A03D1D4E90B2397
:101560001A431043086020684069656A20F007014B
:1015700028460D43012704280CD1A06A0543E06AE0
:1015800040B12046FFF714FA20B14020606584F88E
:101590003570BAE7206845612046FFF7F5F994F801
:1015A0005C203F2191408160666584F835700020A1
:1015B000ACE700003F8010F02DE9F0410446866D55
:1015C00090F83400002501280DD0012084F8340063
:1015D00094F835700020012F07D084F834000225DC
:1015E0002846BDE8F0810220FBE7022784F8357029
:1015F00060652046FFF706FA94F85C103F208840AB
:10160000B0602068016841F01601016020684169FE
:1016100041F080014161206C20B12068016841F0F7
:10162000080101602068016841F001010160D7E70D
:1016300031B500F003F9009C0546601C00D0641C25
:1016400000F0FCF8401BA042FAD338BD2DE9F84F5A
:10165000DFF8A091002209F1040A0AF1040B4FF00F
:101660000F080BF1040E01260B6896403340B3427D
:1016700071D14C68022C01D0122C11D1D40800EB8E
:1016800084073D6A5407E40E08FA04FC25EA0C05B9
:10169000D1F810C00CFA04FC4CEA050CC7F820C0C5
:1016A00007685400032591F804C0A5400CF0030C12
:1016B000AF430CFA04FC4CEA070CC0F800C04F68BA
:1016C000012F05D0022F03D0112F01D0122F11D1DD
:1016D0008768D1F80CC0AF430CFA04FC4CEA070C45
:1016E000C0F808C04768B7430E79C6F300169640A5
:1016F0003E434660C668AE438D68A5403543C5602D
:101700004C68E4006FD53C4C256845F48045256065
:10171000246822F0030504F480440094374C2E1909
:10172000D6F808789407250F08FA05F4A743344C37
:10173000A04201D100242EE0324CA04201D101246C
:1017400029E0314CA04201D1022424E02F4CA042D8
:1017500002D103241FE046E02D4CA04201D1042415
:1017600019E02C4CA04201D1052414E02A4CA042DF
:1017700001D106240FE0294CA04201D107240AE040
:10178000274CA04201D1082405E0264CA04201D1FB
:10179000092400E00A24AC403C43C6F80848D9F8C4
:1017A00000404D464E689C43F60300D51C432C6018
:1017B000DAF8004055464E689C43B60300D51C43FA
:1017C0002C60DBF800405D464E689C43F60200D575
:1017D0001C432C60DEF8004075464E689C43B60200
:1017E00000D51C432C60521C102AFFF43CAFBDE80E
:1017F000F88F0000003C01404438024000300140B6
:10180000000002400004024000080240000C0240B8
:10181000001002400014024000180240001C024068
:10182000002002400024024042694A404261704761
:101830000AB1816170470904FBE7000001480068B4
:10184000704700000000002002480168491C016048
:1018500070470000000000200B4810B5016841F4FB
:1018600000710160016841F480610160016841F428
:1018700080710160032000F0A3F8002000F006F85A
:1018800000F03EF8002010BD003C024010B50146BB
:1018900088B000221E2000F073F81E2000F064F8CB
:1018A00013480024016841F004010160006805A9A3
:1018B00000F004000690684600F03CF900F060F982
:1018C0000C494000B0FBF1F10C480B4A491E026084
:1018D00040F2E732C0E90324C0E9011400F0ABFC98
:1018E00010B1012008B010BD044800F0E9FCF9E790
:1018F0004038024040420F000008004080050020B0
:1019000010B5032000F05CF8002211466FF00B00C8
:1019100000F036F8002211466FF00A0000F030F8AF
:10192000002211466FF0090000F02AF8002211464B
:10193000501F00F025F800221146101F00F020F87B
:1019400000220F21901E00F01BF800220F21501ED4
:1019500000F016F800220A21012000F011F8BDE87D
:1019600010400120AFF3008000F01F0201219140E0
:101970004009800000F1E020C0F80011704700002D
:10198000F0B40E4B1B68C3F30223C3F10704042C0D
:1019900000D904241D1D072D01D2002300E0DB1E09
:1019A000012606FA04F56D1E0D409D409E40761EF0
:1019B000164045EA0601F0BC01F0F8BC0CED00E071
:1019C000064A00F0070110684FF6FF03184040EA8E
:1019D0000120034908431060704700000CED00E04F
:1019E0000000FA057047000010B5054C2068C003E0
:1019F00004D5FFF7F7FF4FF48030206010BD0000E2
:101A0000143C01402DE9F0470D46040065D0DFF895
:101A10001491D9F80000EFB200F00F00A84207D2ED
:101A200089F80070D9F8000000F00F00A84254D1E6
:101A300020683D4E810712D5400703D5306840F439
:101A4000E05030602078000703D5306840F46040F3
:101A500030603068A16820F0F000084330602078E2
:101A6000C0072DD0304960680839012812D00228FB
:101A700013D0032811D00968890700292DDA3168AD
:101A800021F0030101433160FFF7D8FE804641F2A7
:101A9000883A0EE009688903EFE709688901ECE7F5
:101AA000FFF7CCFEA0EB0801514502D90320BDE8A9
:101AB000F0873068616800F00C00B0EB810FEFD167
:101AC000D9F80010484601F00F01A94207D9077064
:101AD000006800F00F00A84201D00120E7E720785D
:101AE000400705D53068E16820F4E05008433060D5
:101AF0002078000706D53068216920F4604040EA6C
:101B0000C100306000F05CF83168084AC1F303118D
:101B1000515CC840064908600020FFF7B7FE00206E
:101B2000C5E70000003C024008380240604F000852
:101B3000480100200F2202600C4A136803F00303DF
:101B40004360136803F0F0038360136803F4E05309
:101B5000C36012684FF4E05303EAD2020261044802
:101B6000006800F00F00086070470000083802406D
:101B7000003C024001480068704700004801002016
:101B80000448054900680968044AC1F38221515C90
:101B9000C84070474801002008380240704F0008D4
:101BA0000448054900680968044AC1F34231515CA0
:101BB000C84070474801002008380240704F0008B4
:101BC000154810B5006810F00C01144813D0144BE0
:101BD00004290FD008290ED10F4C241F216801F0D1
:101BE0003F022168490207D52068C0F38810A0FB96
:101BF000030106E0184610BD2168C1F38811A1FB5E
:101C000000010023FEF74CFB2168C1F30141491C90
:101C10004900B0FBF1F010BD083802400024F40088
:101C2000001BB7002DE9F84F04006ED02078DFF8D4
:101C3000C4A2B14DC00748D0DAF800105046C1F335
:101C40008101012908D00068C0F3810002280AD16F
:101C5000281D0068400206D52868800335D56068D5
:101C60000028E2D031E06068B0F5803F10D0B0F5D8
:101C7000A02F286810D020F480302860286820F435
:101C8000802028606068A0B1FFF7D8FD06460CE010
:101C9000286840F48030F4E740F480202860F7E7BB
:101CA000FFF7CCFD801B642873D828688003F7D524
:101CB0000BE0FFF7C3FD064604E0FFF7BFFD801B06
:101CC0006428F1D828688003F7D42078DFF82C82C4
:101CD00080074FF0010B4FF000093DD5DAF80010F6
:101CE000504611F00C0F09D00068C0F381000228A3
:101CF0000CD18048001F0068400207D42868800784
:101D000014D5E068012800D110E0F1E0E068A8B146
:101D1000C8F800B0FFF792FD064604E0FFF78EFD1D
:101D2000801B022835D828688007F7D528682169E4
:101D300020F0F80040EAC10028600DE0C8F80090EB
:101D4000FFF77CFD064604E0FFF778FD801B0228C4
:101D50001FD828688007F7D42078000722D5654F60
:101D6000674861696C3771B1C0F800B0FFF766FD74
:101D7000064604E0FFF762FD801B022809D8386898
:101D80008007F7D50EE0C0F80090FFF757FD064634
:101D900005E082E0FFF752FD801B02287DD83868FD
:101DA0008007F7D42078400750D552483830016872
:101DB00041F0805101600068524F00F08050009067
:101DC000386840F480703860FFF738FD064604E05C
:101DD000FFF734FD801B02285FD83868C005F7D5AF
:101DE000444FA068683701280FD00528386810D004
:101DF00020F001003860386820F004003860A068E6
:101E0000B0B1FFF71BFD06460EE0386840F0010058
:101E1000F4E740F004003860F7E7FFF70FFD811B9F
:101E200041F2883081425BD838688007F5D50DE0F3
:101E3000FFF704FD064606E0FFF700FD811B41F2B7
:101E4000883081424CD838688007F5D4A06928B31F
:101E5000DAF80010C1F38101022949D0022848466E
:101E600005D0C8F86000FFF7E9FC04463BE04746B0
:101E7000C8F86000FFF7E2FC064604E0FFF7DEFC6E
:101E8000801B02282CD828688001F7D4D4E90701E8
:101E90000843A16A1C4A490801E021E026E002EB60
:101EA0000141626A41EA8211084394F82C1040EA29
:101EB00001611048001F0160C7F860B0FFF7BEFC69
:101EC000044604E0FFF7BAFC001B022808D8286883
:101ED0008001F7D50AE0FFF7B1FC001B022802D908
:101EE0000320BDE8F88F28688001F4D40020F8E7CB
:101EF0000120F6E70838024000380240000047425F
:101F0000800E4742007000400000FFFF70B50400E3
:101F100005D00025A56294F8510010B106E001201B
:101F200070BD84F85050204600F030F8022084F84C
:101F300051002068016821F040010160D4E90101ED
:101F40000843D4E903121143084361690843218B14
:101F500001F400710843E1690843216A0843A16A5A
:101F6000084321680860A069042101EA1040616A01
:101F70000843216848602068C16921F40061C1619B
:101F80006565012084F85100002070BD00B500682F
:101F90000E4987B0884217D10D480021026842F4EB
:101FA00080120260006800F4801005904FF46070A9
:101FB00000900220CDE90101032003900520049048
:101FC00069460448FFF742FB07B000BD00500140DE
:101FD00044380240001402402DE9F84F044690F8BE
:101FE00050000127DDF828809B4616460D464FF02D
:101FF000000901280ED0012084F85000FFF71EFCD4
:10200000824694F85100616801280CD0B1F5827FB6
:1020100007D102E00220BDE8F88FA16809B90428C1
:1020200001D00220A2E045B13EB1BBF1000F04D0C7
:1020300094F85100012802D004E0012096E0052028
:1020400084F8510000206065A663A4F83EB0A4F8AF
:102050003CB02563A4F836B0A4F834B020646064C2
:1020600020680168490603D4016841F0400101601D
:10207000E068B0F5006F606804D0D0B3E08E01284E
:1020800038D063E010B1E08E01282BD1216835F8FB
:10209000020BC860E08E401EE08623E067B1E08E50
:1020A00050B120688168890706D535F8021BC160E8
:1020B000E08E401EE0860027E08F50B120688168E6
:1020C000C90706D0C06826F8020BE08F401EE087E3
:1020D0000127B8F1FF3F05D0FFF7B0FBA0EB0A01E5
:1020E000414542D2E08E0028D8D1E08F0028D5D1DA
:1020F00032E0FFE7216815F8010B0873E08E401EFF
:10210000E08623E067B1E08E50B1206881688907DE
:1021100006D515F8011B0173E08E401EE0860027EE
:10212000E08F50B120688168C90706D0C06806F802
:10213000010BE08F401EE0870127B8F1FF3F05D07B
:10214000FFF77CFBA0EB0A0141450ED2E08E002890
:10215000D8D1E08F0028D5D1434601220221204664
:10216000CDF800A001F048F910B10320814610E03D
:1021700052464146204601F02FF920B120204FF071
:102180000109606505E0A06818B92068C168806829
:102190000090012084F85100002084F85000484647
:1021A00039E74FF0E0210428086903D020F004004B
:1021B0000861704740F00400FAE710B5401EB0F126
:1021C000807F01D3012010BD4FF0E02460610F211A
:1021D000601701F0EBF80020A061072020610020CB
:1021E00010BD7047704730B590F83820012A20D0D4
:1021F000012380F83830022280F8392002685468C0
:1022000024F070045460026854680D682C435460D4
:102210000268946824F080049460026894684968B5
:102220000C43946080F83930002180F8381008465B
:1022300030BD022030BD10B5040003D094F8390041
:1022400010B107E0012010BD002084F838002046BE
:1022500000F00CF8022084F83900211D206801F0FC
:102260009FF9012084F83900002010BD08B50068EE
:10227000104A1149904211D1086840F002000860EC
:102280000868002200F00200009006211D20FFF7E0
:1022900077FBBDE808401D20FFF766BB074A904268
:1022A00007D1086840F008000860086800F00800DE
:1022B000009008BD0004004040380240000C00407F
:1022C0000168CA6842F00102CA600068016841F012
:1022D000010101600020704770B5044690F8380095
:1022E000012817D0012584F83850022084F83900DD
:1022F0002068826822F0770222F47F4282600868B8
:10230000502836D00DDC202858D005DC80B31028AA
:1023100040D150E0022070BD302852D0402839D141
:102320003EE060282DD070280BD0B0F5805F03D040
:10233000B0F5005F2ED110E02068816821F0070120
:1023400009E0CB68D1E90121206801F094F9206807
:10235000816841F0770181601CE0CB68D1E90121FF
:10236000206801F088F92068816841F48041F2E733
:102370001EE0CA684968206801F046FA50212068CA
:1023800006E0CA684968206801F04FFA60212068B9
:1023900001F07BF984F83950002084F8380070BDD2
:1023A000CA684968206801F02FFA40212068EFE7E9
:1023B00000212068ECE710212068E9E7202120684F
:1023C000E6E730212068E3E7704770B5044600680F
:1023D00001694FF00005C943890715D4C168C94395
:1023E000890711D4E91E01610120207620688069E7
:1023F0008007204602D0FFF7E7FF04E000F0BCF8BA
:10240000204600F03EF9257620680169C943490756
:1024100017D4C168C943490713D46FF0040101619F
:10242000022020762068806910F4407F204602D088
:10243000FFF7CAFF04E000F09FF8204600F021F902
:10244000257620680169C943090716D4C168C943C4
:10245000090712D46FF0080101610420207620687A
:10246000C0698007204602D0FFF7AEFF04E000F00D
:1024700083F8204600F005F9257620680169C943F4
:10248000C90617D4C168C943C90613D46FF0100137
:102490000161082020762068C06910F4407F204642
:1024A00002D0FFF791FF04E000F066F8204600F04C
:1024B000E8F8257620680169C943C90708D1C168D1
:1024C000C943C90704D1891E0161204600F0F6F80E
:1024D00020680169C943090609D4C168C9430906CE
:1024E00005D46FF0800101612046FFF77AFE206875
:1024F0000169C943490609D4C168C943490605D4DD
:102500006FF040010161204600F0EEF8206801699B
:10251000C94389060BD4C168C943890607D46FF043
:10252000200101612046BDE87040FFF75BBE70BD31
:1025300030B500680D4985B0884214D101200224CD
:1025400000258DE83100CDE9035469460848FFF7BE
:102550007DF84FF4C0508DE83100CDE90354694651
:102560000448FFF773F805B030BD0000000C0040D0
:1025700000200240001C0240704770B5044690F8ED
:1025800038000D4601280DD0012684F8386002205D
:1025900084F8390042B1042A18D0082A2AD00C2A1B
:1025A0004DD139E0022070BD206801F077F8206835
:1025B000816941F0080181612068816921F004018D
:1025C0008161206881692A69114311E0206801F066
:1025D00091F82068816941F4006181612068816916
:1025E00021F480618161206881692A6941EA0221C0
:1025F000816124E0206801F0AFF82068C16941F0F2
:102600000801C1612068C16921F00401C16120682D
:10261000C1692A69114311E0206801F0CDF82068F2
:10262000C16941F40061C1612068C16921F4806120
:10263000C1612068C1692A6941EA0221C16184F847
:102640003960002084F8380070BD10B5040003D054
:1026500094F8390010B107E0012010BD002084F883
:102660003800204600F00CF8022084F83900211DC3
:10267000206800F095FF012084F83900002010BD8B
:102680007047704710B504460068012200F0E8FF6B
:1026900008482168814202D00748814203D1486C32
:1026A00040F4004048642068016841F00101016085
:1026B000002010BD000001400004014010B5044698
:1026C00000680749884201D1FFF7BEF80549206834
:1026D000884203D1BDE8104000F0CEB910BD000023
:1026E0000008004000040040704710B50446006830
:1026F000416994F83920C1F3C011212A0BD151B19D
:10270000416921F080014161206B08B1FEF7D2FDE3
:10271000204601F00EF92068416994F83A20C1F38F
:102720008011222A0BD151B1416921F04001416150
:10273000606B08B1FEF7BEFD204601F0ECF800200A
:1027400010BD704770B5040004D094F8390000251E
:1027500010B106E0012070BD84F83850204600F02A
:1027600023F8242084F839002068C16821F400513E
:10277000C160204601F0E6F82068016921F490412B
:1027800001612068416921F02A0141612068C16826
:1027900041F40051C160E563202084F8390084F8D9
:1027A0003A00002070BD00002DE9F04304460068A7
:1027B0004C4E02210122032300254F0287B04FF027
:1027C0004009B04242D14848066846F400360660E7
:1027D000006800F4003005900C208DE80F00072001
:1027E000049069464148FEF731FF424E40484FF0A1
:1027F00000683060C6E90185C6E903577561B561B7
:10280000F561356230467562FEF76CFE20B140F22C
:10281000C71139A001F018FA6663B4633D4E34481D
:10282000C6E903577561B561F561356218307562A7
:1028300086E801033046FEF755FE10B140F2D9118B
:102840004BE02663B46307B0BDE8F083324EB0427C
:10285000F9D12548001D066846F02006066000688C
:1028600000F0200005904FF484408DE80F00082010
:10287000049069462948FEF7E9FE2A4E28484FF0A1
:1028800020683060C6E90185C6E9035775614FF4D9
:102890000030B561C6E9075030467562FEF722FE8A
:1028A00020B140F2032114A001F0CEF96663B463B5
:1028B0001D4E1B48C6E9035775617830B56186E83F
:1028C00001034FF48030C6E9075030467562FEF7C9
:1028D00009FE0028B5D040F2152107A001F0B4F997
:1028E000AFE70000004400404038024000000240D2
:1028F00088600240EC0300202E2E2F5372632F734A
:10290000746D3332663478785F68616C5F6D7370B4
:102910002E6300004C040020001401400018024007
:1029200028640240AC0400200C05002037B50446A2
:1029300090F83A0082B0134620283AD1039AAAB3FD
:10294000A3B394F83800012833D0012084F838006C
:10295000A262A3850025E563222084F83A00616B1A
:102960001548C863616B15480864616B1448C864F6
:10297000606B05652168606B091DFEF71DFE206810
:1029800001684168009184F83850C16841F4807151
:10299000C1602068416941F00101416120684169DD
:1029A00041F040014161002005B030BDFFE701204A
:1029B000FAE70220F8E7000099380008D538000847
:1029C0004F38000870477047F7B5044690F8390053
:1029D000202831D1019969B362B394F838000128F5
:1029E0002AD0012084F838002162A284E2840025E4
:1029F000E563212084F83900236B1048D863236BEA
:102A00000F481864236B0F48D864206B1346056584
:102A10002668206B321DFEF7CFFD21686FF0400065
:102A2000086084F838502068416941F080014161B4
:102A30000020FEBD0120FEBD0220FEBDDF380008E3
:102A40000D3900084F38000870477047704710B5BF
:102A500001684A68D243920507D48A68D243D207F4
:102A600003D1921E8A60FFF7F1FF10BDFEE70A2036
:102A700001F092FAFBE7000000B585B01422694628
:102A80003B2000F053FABDF8000041BA2B4801800A
:102A9000BDF8021049BA4180BDF8041049BA8180DE
:102AA000BDF8061049BAC18000F114019DF8092053
:102AB0000B89D21A9DF8083042EA032202819DF860
:102AC0000B204B89D21A9DF80A3042EA0322428138
:102AD0009DF80D208989511A9DF80C2041EA0221A8
:102AE0008181BDF80E100BB2C381BDF8101000EE4D
:102AF000103A09B20182BDF81220B8EEC00A12B233
:102B000042820F48D0ED070A30EE600A80ED090AD4
:102B100000EE101AD0ED080AB8EEC00A30EE600AD6
:102B2000D0ED060A20EE200A80ED0A0A00EE102AF7
:102B3000B8EEC00A80ED0B0A05B000BDDC430020F2
:102B4000C40000200648B3EE0E0A80ED070A9FED90
:102B5000050A80ED080A9FED040A80ED060A704719
:102B6000C4000020000002C31CC7713F10B5302113
:102B70006A2000F009FA0A20FEF75AFD0D212420F0
:102B800000F002FA0A20FEF753FD0E21282000F083
:102B9000FBF90A20FEF74CFD8E21312000F0F4F9FC
:102BA0000A20FEF745FD01210B2000F074F80020FB
:102BB00000F055F8102801D0012010BD0A20FEF7C2
:102BC00037FD00210A2000F066F80A2000F047F8DF
:102BD00008B1022010BD0A20FEF72AFD00210B20BB
:102BE00000F059F80B2000F03AF808B1032010BDAE
:102BF0000A20FEF71DFD2421412000F04CF8412061
:102C000000F02DF8242801D0042010BD0A20FEF782
:102C10000FFDC021422000F03EF8422000F01FF8D6
:102C2000C02801D0052010BD0A20FEF701FD0021BB
:102C30002A2000F0A9F90A20FEF7FAFC002134202E
:102C400000F0A2F90A20FEF7F3FC062203210E2071
:102C500000F0C4F96420FEF7EBFC002010BD10B5B5
:102C60000146322000F090F90A20FEF7E1FC8021B5
:102C7000342000F089F90A20FEF7DAFC352000F054
:102C80002DF904460021342000F07EF90A20FEF7D9
:102C9000CFFC204610BD70B50D46044600212A2009
:102CA00000F072F90220FEF7C3FC2146292000F053
:102CB0006BF90220FEF7BCFC2946642000F064F9A1
:102CC0000220FEF7B5FC81212A2000F05DF9BDE865
:102CD00070400A20FEF7ACBC10B5FFF7CDFE564A97
:102CE0004FF07E5392ED090ABDEEC00A10EE100AB5
:102CF00092ED0A0A01B2BDEEC00A10EE100A00B24F
:102D00009FED4E1A9FED4E0ADFED4E2ADFED4E1A73
:102D1000DFED4E0A9FED4E2A002946DA002825DA1B
:102D200091FBF0F000EE900AF8EEE00AF0EEE00A17
:102D300010EE900A98420ADB82ED021A82ED030A35
:102D40009FED440A82ED040A9FED430A0BE09FEDDC
:102D5000430A82ED020A9FED420A82ED030AC2EDA8
:102D6000042A9FED400A82ED050A10BDFDDD91FBAE
:102D7000F0F001EE100AB8EEC11AB0EEC11A11EE71
:102D8000100A9FED391A984282ED021A06DB82ED95
:102D9000030AC2ED041A9FED350AE4E7C2ED030A07
:102DA00082ED042A9FED320ADDE7DEDD00281FDD1B
:102DB00091FBF0F002EE900AF8EEE22AF0EEE22A41
:102DC00012EE900A98420ADBDFED2A0AC2ED020AEF
:102DD000C2ED031A82ED040A82ED051A10BD9FEDC3
:102DE000260A82ED020A82ED032AC2ED040ABAE73E
:102DF000F4DA91FBF0F000EE900AF8EEE00AF0EE63
:102E0000E00A10EE900ADFED1D0A9842C2ED020AB8
:102E100008DBDFED1B0AC2ED030A82ED040A9FED19
:102E2000190AA0E79FED180AC2ED032A82ED040AF1
:102E30009FED160A97E70000C40000200AD7A3BB45
:102E4000A8C64BBEE17A543F355E7ABF68910DBF8C
:102E5000E17A54BFBE9F7A3F4ED111BC6F1203BCC2
:102E60007B140EBF6F1203BB0AD7A33BA69B443C47
:102E700099BB16BB52499D3A99BB163B0AD7233BD7
:102E8000355E7A3F6F12033C295C0FBFBC74933BE5
:102E900030B585B0002414220E496846FDF731FA9A
:102EA0006420FEF7C5FB752000F018F80A496D464E
:102EB000087005EB4400417815F8140000F064F840
:102EC0000120FEF7B5FB641CE4B20A2CF1D305B077
:102ED000002030BD4C4F0008C4000020F8B5104E53
:102EE0000446002240213046FEF7A2FC44F0800058
:102EF0000C4C3725E21C20710123511C0A48009517
:102F0000FFF76AF8E21C0123511C07480095FFF700
:102F100063F8012240213046FEF78AFCE078F8BDD4
:102F200000140240C4000020D4010020F8B5134C66
:102F300015460E460746002240212046FEF778FC43
:102F40000F4847F0800237278271743001230270E6
:102F5000A0F16F02511C0B480097FFF73DF808499C
:102F60002B463246743107480097FFF735F80122A7
:102F700040212046FEF75CFC0020F8BD0014024012
:102F8000C4000020D4010020F8B5114D0E460446BF
:102F9000002240212846FEF74BFC04F07F000D4C38
:102FA0003727621CA0700123511C0B480097FFF7C4
:102FB00013F8A670621C0123511C07480097FFF705
:102FC0000BF8012240212846FEF732FC0020F8BD14
:102FD00000140240C4000020D401002070B50E4649
:102FE0000446014615462820FFF7CEFF0220FEF7D3
:102FF0001FFB0A212920FFF7C7FF0220FEF718FB5D
:1030000001216420FFF7C0FF0220FEF711FB44F00E
:1030100080012520FFF7B8FF0220FEF709FB3146AB
:103020002620FFF7B1FF0220FEF702FB0321342028
:10303000FFF7AAFF0220FEF7FBFA03216720FFF744
:10304000A3FF0220FEF7F4FA81212A20FFF79CFF5C
:103050000620FEF7EDFA45F080012720FFF794FFE8
:10306000BDE870400720FEF7E3BA00000E4810B537
:103070000C4901600321416000214FF4002281606E
:10308000C0E903124FF44012C0E905210122C0E952
:10309000072141628162C162FDF76AFE002800D00B
:1030A000FEE710BD006400404C0100200F4810B541
:1030B0000D4901600521416000214FF04072C0E9D7
:1030C00002124FF4003202615201C0E905210122CF
:1030D000C0E9072141628162C162FDF749FE002813
:1030E00000D0FEE710BD0000006800409001002005
:1030F000194808B5016841F400110160016801F444
:1031000000110091016841F4800101600068002213
:1031100000F48000009005211020FEF731FC102003
:10312000FEF722FC002205211120FEF729FC1120C8
:10313000FEF71AFC002205213920FEF721FC392078
:10314000FEF712FC00220A214520FEF719FCBDE81B
:1031500008404520FEF708BC303802402DE9F04316
:10316000434887B00024016841F010010160016804
:1031700001F010010591016841F040010160016812
:1031800001F040010591016841F00801016001680A
:1031900001F008010591016841F480710160016846
:1031A00001F480710591016841F0800101600168BE
:1031B00001F080010591016841F020010160016882
:1031C00001F020010591016841F0010101600168F1
:1031D00001F001010591016841F0040101600168FD
:1031E00001F004010591016841F0020101600068ED
:1031F000204F00F00200059000228C213846FEF797
:1032000017FBDFF8748044F2400600223146404646
:10321000FEF70EFBDFF86490002220214846FEF7FF
:1032200007FB8C2000900125CDE901546946384602
:103230000394FEF70BFA022000901148CDE9010437
:1032400069463846FEF702FA0096CDE90154694610
:1032500040460394FEF7FAF920200090CDE901548E
:10326000694648460394FEF7F1F907B0BDE8F083DC
:1032700030380240001002400014024000080240B2
:10328000000011100E4810B50C4901604FF4827116
:10329000416000218160C1604FF400720161C0E9AA
:1032A00005121822C0E90721416281620A21C16228
:1032B000FEF72CFE002800D0FEE710BD00500140B4
:1032C000D401002010B5124886B010490024C0E98E
:1032D00000144AF21041C0E902410461FEF7ABFF5D
:1032E00000B1FEE74FF48050009069460848FEF7B1
:1032F000F3FF00B1FEE7049404A905480594FEF726
:1033000072FF002800D0FEE706B010BD00040040A8
:103310002C02002010B523488EB0214901602921DC
:103320000024C0E9011442F20F71C0E90314FEF752
:1033300082FF00B1FEE74FF48050079007A91948BB
:10334000FEF7CAFF00B1FEE71648FFF77EF900B1AD
:10335000FEE70B940BA913480C94FEF744FF00B151
:10336000FEE76020CDE900040294042269460D487E
:103370000494FFF702F900B1FEE708226946094804
:10338000FFF7FBF800B1FEE70C2269460548FFF79E
:10339000F4F800B1FEE70348FFF7CAF80EB010BD1D
:1033A000000C004068020020FEE770470907090E84
:1033B000002806DA00F00F0000F1E02080F8141D6C
:1033C000704700F1E02080F800147047FEF70CBB56
:1033D000642000F0E1FDFBE738B50B46009204469F
:1033E0000022802100F008F8002804D0606D40F031
:1033F00020006065032038BD2DE9F0411D461746C9
:103400000E460446DDF8188035E0681C33D02DB137
:10341000FEF714FAA0EB0800A8422CD320684168FC
:1034200021F0E00141606068B0F5827F0BD1A068B7
:10343000B0F5004F02D0B0F5806F04D1206801686C
:1034400021F040010160A06AB0F5005F0AD1206858
:1034500001684DF6FF72114001602068016841F477
:1034600000510160012084F85100002084F85000D0
:103470000320BDE8F0812068806836EA000004D0AF
:103480000020B842C1D10020F3E70120F9E700F0A5
:103490008FBD000030B5254893B00025016841F08C
:1034A00080510160006800F0805011902048016850
:1034B00041F4404101600068022400F44040119052
:1034C00001200090000401908001CDE90640062013
:1034D0000890A820CDE9090407200B906846FEF764
:1034E000A1FB00B1FEE70CA90F2081E831004FF4E9
:1034F000A0500F904FF48050109005210CA8FEF7BB
:1035000081FA00B1FEE7FEF735FB4FF47A71B0FBAC
:10351000F1F0FEF752FE0420FEF743FE00220F21D9
:10352000501EFEF72DFA13B030BD000040380240A7
:10353000007000401048016841F4700101600F48BC
:10354000016841F0010101600C4A0021083211605C
:1035500002680B4B1A400260031D0A4A1A60026897
:1035600022F48022026005480C30016002495806AE
:10357000803908607047000088ED00E000380240A4
:10358000FFFFF6FE103000240148FEF71EBF0000CA
:103590002C0200200148FEF718BF00008005002023
:1035A000F0B50268234D244E244FDFF894C0254B1C
:1035B0004FF0804EA84209D0704507D0B04205D0E8
:1035C000B84203D0604501D0984203D122F0700484
:1035D0004A682243A8421BD0704519D0B04217D088
:1035E000B84215D0604513D0984211D0164CA04275
:1035F0000ED0164CA0420BD0154CA04208D0154C52
:10360000A04205D0144CA04202D0144CA04203D1D9
:1036100022F44074CA68224302608A68C2620A685F
:103620008262A84201D0984201D109690163012157
:103630004161F0BD0000014000040040000800406E
:10364000000C0040000401400040014000440140E3
:103650000048014000180040001C004000200040CD
:1036600010B50123046A8B409C430462036A8A40BC
:103670001343036210BD10B5846842EA032224F4A8
:103680007F440A432243826010BD826822F07002A8
:103690000A4342F0070181607047000030B5026ABA
:1036A00022F001020262056A426883690C6823F015
:1036B00073031C438B6825F002052B430B4DA84276
:1036C00002D00B4DA8420BD123F00805CB6822F4A1
:1036D00040722B434D6923F0040315438A692A4342
:1036E0004260846149684163036230BD000001406B
:1036F0000004014030B5026A22F010020262036A3F
:10370000426884690D6824F4E64444EA05248D681F
:1037100023F0200343EA05130D4DA84202D00D4DBE
:10372000A8420ED1CD6823F0800343EA05134D690A
:1037300022F4406242EA85028D6923F0400342EAA6
:1037400085024260846149688163036230BD000084
:10375000000001400004014030B5026A22F480728A
:103760000262036A4268C46923F4007324F073059B
:103770000C682C438D6843EA05230D4DA84202D006
:103780000C4DA8420ED1CD6823F4006343EA052313
:103790004D6922F4405242EA05128D6923F4806398
:1037A00042EA05124260C4614968C163036230BDE8
:1037B000000001400004014030B5026A22F480524A
:1037C0000262036A4268C4690D6824F4E64444EA6C
:1037D00005248D6823F4005343EA0533084DA842BD
:1037E00002D0084DA84204D14D6922F4804242EA39
:1037F00085124260C46149680164036230BD000003
:10380000000001400004014010B5046A036A23F07F
:1038100001030362836923F0F00343EA021324F0F7
:103820000A020A438361026210BD10B5036A23F0E5
:10383000100303628469036A24F4704444EA023288
:1038400023F0A00343EA01118261016210BD70B54B
:10385000846B2068406994F83910C0F3C0100025CB
:10386000212904D118B1E584204600F062F82068CF
:10387000406994F83A10C0F38010222904D118B19D
:10388000E585204600F047F8E06B40F01000E0636B
:103890002046FEF756FF70BD10B50146806B0968E3
:1038A0000968C90513D40021C1850168CA6822F4DA
:1038B0008072CA6001684A6922F001024A610168A7
:1038C0004A6922F040024A61202180F83A10FFF74D
:1038D00079F810BD10B5806BFFF775F810BD10B505
:1038E0000146806B09680968C9050CD40021C184B0
:1038F00001684A6922F080024A610068C16841F0AB
:103900004001C16010BDFFF79FF810BD10B5806B7E
:10391000FFF79BF810BD0168CA6822F49072CA6074
:1039200001684A6922F001024A61202180F83A10B8
:1039300070470168CA6822F0C002CA60202180F87E
:10394000391070472DE9F04104460068016921F4FF
:103950004052E168114301612068C16849F20C627C
:1039600091432369A268E5691A4363692B431A43AB
:103970000A43C26020684169A26921F440710A4388
:103980004261E0696425B0F5004F974A9749206885
:103990004FF032083FD0884201D090427CD1FEF7F0
:1039A000FFF800EBC00101EB001061688900B0FB7B
:1039B000F1F6FEF7F5F800EBC00101EB00106168CD
:1039C0008900B0FBF1F0B0FBF5F06FF0180148434F
:1039D00006EB800108EB0110B0FBF5F000F0F006FB
:1039E000FEF7DEF800EBC00101EB00106168890012
:1039F000B0FBF1F0B0FBF5F006EB0016FEF7D0F8E7
:103A000000EBC00101EB001061688900B0FBF1F729
:103A1000FEF7C6F8D2E0884201D090423DD1FEF7D1
:103A2000BFF800EBC00101EB001061684900B0FB7A
:103A3000F1F0B0FBF5F00601FEF7B2F800EBC001C3
:103A400001EB001061684900B0FBF1F7FEF7A8F840
:103A500000EBC00101EB001061684900B0FBF1F020
:103A6000B0FBF5F06FF01801484307EB800108EB5D
:103A7000C100B0FBF5F000F0F80006EB4006FEF7E1
:103A80008FF800EBC00101EB001061684900B0FB4A
:103A9000F1F7FEF785F83CE055E0FEF771F800EB32
:103AA000C00101EB001061684900B0FBF1F0B0FB10
:103AB000F5F00601FEF764F800EBC00101EB001021
:103AC00061684900B0FBF1F7FEF75AF800EBC0015E
:103AD00001EB001061684900B0FBF1F0B0FBF5F0BC
:103AE0006FF01801484307EB800108EBC100B0FB01
:103AF000F5F000F0F80006EB4006FEF741F800EBA9
:103B0000C00101EB001061684900B0FBF1F7FEF75E
:103B100037F800EBC00101EB001061684900B0FB11
:103B2000F1F0B0FBF5F06FF01801484307EB8001AE
:103B300008EBC100B0FBF5F000F00700216830444D
:103B40008860BDE8F081FEF71BF800EBC00101EBD7
:103B5000001061688900B0FBF1F6FEF711F800EB88
:103B6000C00101EB001061688900B0FBF1F0B0FB0F
:103B7000F5F06FF01801484306EB800108EB0110E7
:103B8000B0FBF5F000F0F006FDF7FAFF00EBC00126
:103B900001EB001061688900B0FBF1F0B0FBF5F0BB
:103BA00006EB0016FDF7ECFF00EBC00101EB001087
:103BB00061688900B0FBF1F7FDF7E2FF00EBC0019F
:103BC00001EB001061688900B0FBF1F0B0FBF5F08B
:103BD0006FF01801484307EB800108EB0110B0FBC0
:103BE000F5F000F00F00A9E70014014000100140BB
:103BF0000C4808B500680168C1F30011002910D015
:103C0000016841680091016840680648FEF76DFD53
:103C1000054800684068C0F54841044841600121FA
:103C2000017008BDA4020020EC030020BC000020AD
:103C3000FEE7282000F0B0F9FBE700000148FEF79E
:103C400006BF00006C050020FEE702E008C8121F56
:103C500008C1002AFAD170477047002001E001C175
:103C6000121F002AFBD17047828902824A6BF1EE53
:103C7000040A928A52BAC260496BC98A49BA00EEF4
:103C8000101AB8EE400A20EE200ADFED030A20EEFB
:103C9000200A80ED010A70470000803810B5838942
:103CA000C3814A6BF1EE040A928A52BA82814C6B4C
:103CB000D31AB3F5805FE48A64BA04804C6B248B1A
:103CC00064BA00EE104AB8EE400A20EE200ADFED9A
:103CD0000C0A20EE200A80ED010A496B897E817270
:103CE000416901DD491E03E013F5805F01DA491CDB
:103CF000416102EB4131028A891A816110BD0000E5
:103D0000000080382DED028BA6B0FDF7A5FDFFF772
:103D1000C1FBFFF723FAFFF7EBF9FFF7A7F9FFF76E
:103D2000C5F97E487C494FF4E13500240160C0E9C3
:103D300001540C26C460C0E904468461C461FEF7E6
:103D400001FD00B1FEE77749754808600846FDF7B8
:103D50008AFA00B1FEE7FFF7DDFA70487249403099
:103D60000160C0E90154C460C0E904468461C461D3
:103D7000FEF7E8FC00B1FEE7FFF784FAFFF7A2FACE
:103D8000FEF7E0FE012204216848FDF751FDFFF730
:103D90007FF8FEF7EBFEFEF79FFF60483C38FEF72A
:103DA0008FFA5E487838FEF78BFA5C480C213C3875
:103DB000FEF768FC594808213C38FEF763FC574879
:103DC00004213C38FEF75EFC4FF47A70FDF730FCBE
:103DD000524E4FF413653C3E3068856340F6B83769
:103DE0003846FDF725FC3068C5633846FDF720FCF2
:103DF000A6F58E7000F0AEF80021A6F58E70FDF7E6
:103E0000CDF806F5907000F071F94FF4FA50CDE955
:103E1000004006F5907002949FED458AF0EE481A36
:103E20009FED441A41F28834856DF7EE080AB2EE30
:103E3000040A23464FF480420121A84706F1BC0042
:103E400000F054F90121009140F6AC50CDE9014059
:103E5000BC36DFED391AB56DB0EE481ADFED370A22
:103E6000B2EE040A2346224600213046A847142217
:103E7000334903A8FCF745FA002103A800F0A2F893
:103E8000284C2F49303C14226061143108A8FCF7FB
:103E900038FA002108A800F095F82949A0611422F9
:103EA00028310DA8FCF72DFA00210DA800F08AF8A2
:103EB0002349E06114223C3112A8FCF722FA0021C8
:103EC00012A800F07FF81E4920621422503117A872
:103ED000FCF717FA002117A800F074F8184960627F
:103EE000142264311CA8FCF70CFA00211CA800F075
:103EF00069F81349A0621422783121A8FCF701FA6D
:103F0000002121A800F05EF8E06200F04CF89FED7F
:103F10000D0A86ED010AFEE700440040A4020020DD
:103F20000030024038000020001401400010024020
:103F300000000000CDCCCC3D9A99993FCDCC4C3EB1
:103F4000C04E000800C05A4501460020842900D018
:103F5000C81C704710B58AB0002104460120CDE985
:103F600006100591009101910291039104910E2197
:103F7000CDE9080169462046FCF75AFD0448844211
:103F800003D1044820631C3060630AB010BD0000F8
:103F90004C0100209C43002010B500B9012000F026
:103FA000F9FC002010BD10B500F01AFD002010BD76
:103FB00010B500F033FE012803D0BDE8104000F03A
:103FC000EBBD10BD3EB504460D46B0F90800FFF745
:103FD000BBFF02A9CDE90001208A2B4682B2D4E9B9
:103FE000001000F0EFFD012801D000203EBD029836
:103FF0003EBD10B504462DED028BB0EE408AC06C7C
:104000002065FDF71BFCE06494F85010401A84F81A
:10401000540084ED068AD4ED071AC4ED081A94ED15
:104020000C0A84ED0D0A94ED010A30EE480A84ED85
:10403000070AB5EEC00AF1EE10FA02DDF0EE400A12
:1040400001E0F1EE400A94ED101AF4EEC10AF1EE2F
:1040500010FA46DDD4ED030A20EE801A84ED091A29
:10406000D4ED0A0A94ED042A42EE000A30EE610A09
:10407000C4ED0A0AD4ED051A60EE211AC4ED0B1A3C
:1040800094ED0F0AF4EEC00AF1EE10FA01DD84EDB2
:104090000A0AD4ED0A0AB1EE400AF4EEC00AF1EEC3
:1040A00010FA02D3B0EE600A01E084ED0A0A31EEA4
:1040B000000A70EE210AC4ED0C0A94ED0E0AF4EE2B
:1040C000C00AF1EE10FA01DD84ED0C0AD4ED0C0A01
:1040D000B1EE400AF4EEC00AF1EE10FA01D284ED1E
:1040E0000C0A94ED0C0ABDEC028B10BD03498165EE
:1040F0000349C16503490166704700000941000892
:1041000059410008F33F00089DEC032A0170B8EE06
:10411000422A80ED112A80ED100A00EE103AB8EE26
:10412000400A80ED0F0A00EE102AB8EE400A80ED3A
:104130000E0AB8EEE20A80ED120AB8EEC30A80ED6C
:10414000010A9FED040A80ED0C0A0C30C0EC030A52
:1041500070470000000000000C3080EC030A70473C
:10416000284C294D2DED028B94ED000A2968BCEEF8
:10417000C00A10EE100A0864244E70797F283CD0E3
:104180007F38FCF7FBF99FED221B53EC112BFCF75A
:1041900083F941EC180B2068FCF701FA53EC182B5B
:1041A000FCF774F9FCF70EFA00EE900AC4ED000A71
:1041B00094ED010AB8EEC01AF4EEC10AF1EE10FA5D
:1041C00003DDB8EEC00A84ED000A94ED020AD4EDD6
:1041D000000AB8EEC01AF4EEC10AF1EE10FA02D3EA
:1041E000B0EE600A03E0B8EEC00A84ED000ABCEE4F
:1041F000C00A296810EE100A08640A20FFF7CCFEF6
:10420000BBE700000800002068020020AF0000208B
:10421000333333333333D33F2DE9F041184E0F4658
:104220000446F5683068001D00F0FEFA38B93068C1
:1042300090F82C1001208840316981433161601C65
:1042400007D137B13168BDE8F0410E48091D00F0D3
:1042500023BB30682C44AC424460316805D2B06B5B
:10426000BDE8F041091D00F0FFBA706B091D00F0B8
:10427000FBFAB06A844200D2B462BDE8F08100006B
:1042800064000020984200202DE9F041054600F02E
:104290000FFB2E4EB068401CB06030682C4F10B140
:1042A000706940B32DE03560B068012829D1002441
:1042B00004EB840007EB800000F0C8FA641C072CB4
:1042C000F6D323488C3000F0C1FA2148A03000F02A
:1042D000BDFA1F48B43000F0B9FA1D48C83000F0EC
:1042E000B5FA1B48DC3000F0B1FA19488C30706325
:1042F0001430B06305E03068E96AC06A884200D8CB
:104300003560706A0121401C70626864E86A326935
:1043100081401143316100EB800007EB8000291DD3
:1043200000F0BAFA00F0E4FA706900280CD03068A6
:10433000E96AC06A884207D206494FF08050086097
:10434000BFF34F8FBFF36F8FBDE8F0816400002093
:10435000BC41002004ED00E070B5124E124D1CE08F
:1043600000F072FB306820B1002400F0C9FCA4B951
:1043700001E00124F9E700F09BFAF068C468201D11
:1043800000F052FAA868401EA8606868401E686085
:1043900000F0AEFA204600F009F868680028DFD186
:1043A00070BD0000844200206400002010B5044667
:1043B000006B00F0B1FA2046BDE8104000F0ACBA46
:1043C00010484FF47051420706D0C01D0D4920F02F
:1043D0000700411AC1F570510B4A00230144C2E99C
:1043E00000030839103A21F0070111604B600B609F
:1043F0000B1AC0E9001393604FF000405360D06087
:1044000070470000BC0500205C000020074E4FF004
:104410008054074DFFF7A0FF30680128FAD92C60BF
:10442000BFF34F8FBFF36F8FF4E70000BC41002054
:1044300004ED00E02DE9F0470E46DDE9098417465A
:10444000824691009946089DA522206BFBF76BFFE1
:104450006FF00301206B01EB8701084420F0070790
:10446000780707D0502080F31188BFF34F8FBFF338
:104470006F8FFEE72218315C82F83410315C11B185
:10448000401C1028F6D3002684F84360072D00D383
:104490000625E562C4E91356201D00F0E2F904F197
:1044A000180000F0DEF92461C5F107006462A06124
:1044B000666584F858604A465146384600F0BEF8B2
:1044C0002060B8F1000F01D0C8F80040BDE8F087C7
:1044D00030B5114900E011460A688242FBD34B68AF
:1044E0005C18844203D14068184448600846436819
:1044F0001C18944209D1084C103C2468A24209D0EF
:1045000052681A4442600A6812680260814200D010
:10451000086030BD0460F9E75C0000200648416B8C
:10452000096829B1416BC968C968496881627047E7
:104530004FF0FF31FAE700006400002008484068AF
:10454000401C4FF0500080F3118804D0BFF34F8F10
:10455000BFF36F8FFEE7BFF34F8FBFF36F8FFEE7A1
:10456000400000202DE9F0410546002600F06CFADD
:10457000314F386808B9FFF723FFF86805424BD17F
:10458000C5B3083568070ED005F00700C0F1080074
:104590000544680707D0502080F31188BFF34F8F80
:1045A000BFF36F8FFEE72DB37868854234D8224978
:1045B00010310846046801E0214604466068A842BC
:1045C00002D220680028F7D13868844224D00E68CF
:1045D0002068086060680836411B10290FD96019EF
:1045E000420708D0502080F31188BFF34F8FBFF3EC
:1045F0006F8FFEE710E041606560FFF769FF61685B
:104600007868401A7860BA68904200D2B860F8685A
:1046100001430020C4E9000100F072FB700707D0DD
:10462000502080F31188BFF34F8FBFF36F8FFEE7E9
:104630003046BDE8F08100004C00002010B5031F9B
:104640004FF080741C601B1F21F001011960191FBD
:10465000044B0B6014390A60091F6FF002024438E2
:104660000A6010BD3D450008F0B4066B40F2FF152E
:10467000049C3560066B0025B560066BF560066B23
:1046800008253561066B0D0A3575056B6975056B77
:10469000110AA975016BCA75026B190A1176016BB3
:1046A0004B76026B210A9176016BCC76F0BC6421CB
:1046B000FCF7FCBCF0B4066B4FF40075049C35604D
:1046C000066B0025B560066BF560066B0825356145
:1046D000066B0D0A3575056B6975056B110AA975B1
:1046E000016BCA75026B190A1176016B4B76026B6E
:1046F000210A9176016BCC76F0BC6421FCF7D6BC24
:104700000D4900200D4D20240D4F087066020A222D
:104710000C490A48FEF70AF90A2207490748FEF73A
:1047200053F985F8394031463846FDF77DF80A20BF
:10473000FFF732FCEBE70000A5000020A4020020F8
:1047400000140240AF0000202E4D08B52E4EDFF8B9
:10475000BC90DFF8BC80002705F59074307870BB02
:1047600028480A2228497C30FEF72EF925492020C6
:104770007C3181F839003079022814D0012818D012
:104780004FF41360296888632968C863707801282A
:1047900012D0022814D09FED1F0AC00784ED010A31
:1047A00011D0012210E0286840F6CD11C163816369
:1047B000ECE740F67F10E5E79FED170AEDE707E02D
:1047C0009FED160AE9E7002220214846FDF730F860
:1047D000B8F90000216E00EE100A1148B8EEC00AC8
:1047E0008847009794ED0C0A00231A46BDEEC00AD4
:1047F00010EE100A01B20B48FFF75CFF0A20FFF72A
:10480000CBFBABE768020020AF00002000080240AD
:10481000AC420020000000000000FA4400007A458D
:10482000880300204C010020D0E9013201699A6020
:10483000D0E901235A604A68824201D182684A6005
:10484000002202610868401E0860704700F10801FC
:104850004FF0FF32C0E90112C16001610021016027
:10486000704700210161704730B50C68621C02D0AE
:1048700000F1080202E0026904E01A4653681D686C
:10488000A542FAD953684B6099608A60516008610B
:104890000168491C016030BD42684A6093688B60C2
:1048A00093685960916008610168491C0160704714
:1048B000502080F31188BFF34F8FBFF36F8F0A49E9
:1048C0004868401C486001280CD10848006810F076
:1048D000FF0F07D0502080F31188BFF34F8FBFF335
:1048E0006F8FFEE7704700004000002004ED00E0FD
:1048F0000849486828B1401E486001D180F31188FA
:104900007047502080F31188BFF34F8FBFF36F8F34
:10491000FEE700004000002070B5002827D0144DAD
:10492000A0F108046068E968084207D1502080F3CC
:104930001188BFF34F8FBFF36F8FFEE722683AB144
:10494000502080F31188BFF34F8FBFF36F8FFEE7C6
:104950008843606000F078F86068696808446860BF
:104960002046FFF7B5FDBDE8704000F0C9B970BD45
:104970004C00002006484FF47A710068B0FBF1F15A
:104980004FF0E020491E416107210161704700009E
:104990004801002010B5020014D00F48006B38B158
:1049A000502080F31188BFF34F8FBFF36F8FFEE766
:1049B00000F04AF800211046FFF72EFC00F0A0F9A5
:1049C000002807D105494FF080500860BFF34F8F92
:1049D000BFF36F8F10BD00006400002004ED00E005
:1049E0001CB515480024CDE900402346802213A1C0
:1049F000144800F0E7F8012809D0401C1AD15020D3
:104A000080F31188BFF34F8FBFF36F8FFEE7502005
:104A100080F31188BFF34F8FBFF36F8F06484FF0BD
:104A2000FF312C38816201214161C460BDE81C4026
:104A300000F040B81CBD00009000002049444C45E7
:104A4000000000000D4400080248016B491C01638E
:104A50007047000064000020144A106B10B1012060
:104A6000D06170470020D06110691149B0FA80F020
:104A7000C0F11F0000EB800051F820306BB101EB5A
:104A8000800000F10803416849684160994201D102
:104A900049684160C86810607047502080F31188F1
:104AA000BFF34F8FBFF36F8FFEE70000640000205D
:104AB000BC4100201CB533480168334A914207D1FC
:104AC000502080F31188BFF34F8FBFF36F8FFEE745
:104AD00000682D49491E884207D1502080F3118873
:104AE000BFF34F8FBFF36F8FFEE72849087801901F
:104AF000FF20087008788DF800009DF800009DF8F0
:104B0000002000F0F000904207D0502080F3118880
:104B1000BFF34F8FBFF36F8FFEE79DF800001C4A75
:104B200000F0500010700720906007E09068401E71
:104B300090609DF8000040008DF800009DF8000096
:104B40000006F3D4107A000200F4E060906001984F
:104B500008700C482030016841F470010160016860
:104B600041F070410160FFF705FF00205060FBF746
:104B700047FB0848016841F040410160FBF730FB0A
:104B800000201CBD00ED00E071C20F4100E400E018
:104B90004000002034EF00E010B5502080F3118871
:104BA000BFF34F8FBFF36F8F00F046F818B1044981
:104BB0004FF080500860002080F3118810BD000085
:104BC00004ED00E02DE9FF5F8346DDE90E8799469D
:104BD00016468A469000FFF7C5FC05001AD05C20F7
:104BE000FFF7C0FC040012D025630021CDE902418B
:104BF000CDE900874B46324651465846FFF71AFC2E
:104C00002046FFF741FB012004B0BDE8F09F284695
:104C1000FFF782FE4FF0FF30F6E7000005484169DC
:104C200019B1006B18B100207047012070470220B5
:104C300070470000640000202DE9F0412E4F00264F
:104C4000386B40B1B869401CB861F86900B1012601
:104C50003046BDE8F081FD686D1CFD6013D1786BB6
:104C6000006838B1502080F31188BFF34F8FBFF335
:104C70006F8FFEE7786BB96B7963B863386A401C55
:104C80003862FFF74BFCB86ADFF87080854209D3C1
:104C9000786B006880B1786BC068C46860688542D2
:104CA0000DD2B8623868C06A00EB800158F8210064
:104CB0000128CAD90126C8E74FF0FF30F1E7201DCF
:104CC000FFF7B2FDA06A18B104F11800FFF7ACFDC0
:104CD000E06A01213A6981401143396100EB8001AA
:104CE00008EB8100211DFFF7D7FDE06A3968C96A2A
:104CF0008842CDD30126CBE764000020BC410020D0
:104D00002DE9F0472C4D00242746286B38B1FFF7DA
:104D1000CFFD286B401E2863286B40B146E0502031
:104D200080F31188BFF34F8FBFF36F8FFEE7A86842
:104D300022490126D0B3A1F1B4098846D8F8001061
:104D4000E9B1D8F80C00C46804F11800FFF76CFD55
:104D5000201DFFF769FDE06A2A6906FA00F1114398
:104D6000296100EB800109EB8100211DFFF794FD13
:104D7000E06A2968C96A8842E0D3EE61DEE70CB1D7
:104D8000FFF7CCFBAC693CB1FFF756FF00B1EE6119
:104D9000641EF9D10020A861E86938B108490127EB
:104DA00038070860BFF34F8FBFF36F8FFFF7A0FD89
:104DB0003846BDE8F0870000640000207042002003
:104DC00004ED00E0314F08B5314C97ED030ADFF8F0
:104DD000C480DFF8C4900126DFF8C0B084ED010A7A
:104DE0006FF0010A002589F8015098F8060049463D
:104DF0007F282BD07F383861022802DD02203861FD
:104E000003E0504501DAC7F810A097ED040AD7ED8A
:104E1000030A234AB8EEC00A30EEC00A10EE100AA8
:104E200087ED030A904204DB9FED1E0A87ED030A1B
:104E30004E7010EE100A1C4A904205DC9FED1B0AD2
:104E400087ED030A89F8016084ED010ADBF80000B0
:104E5000C0EB40311648C068084400EE100A216ECD
:104E60000B48B8EEC00A8847009594ED0C0A002262
:104E70001146BDEEC00A10EE100A03B20D48FFF74E
:104E8000F3FB0120FFF788F8ADE7000008000020E1
:104E900024030020AF000020A5000020A000002077
:104EA00000409C4500409C4500007A4400007A4444
:104EB0006C4300204C01002000061016000610165E
:104EC000784F0008014700080000000000000000C3
:104ED00080000000A04F00084947000800000000C3
:104EE0000000000080000000804F0008C54D000851
:104EF000020000000000000080000000944F000845
:104F0000D133000801000000000000008000000014
:104F10008C4F0008333C0008020000000000000035
:104F200080000000904F00086F2A0008FDFF00007D
:104F30000000000080000000A84F00086141000848
:104F4000FDFF000000000000800000006B806B038C
:104F50006C001A021B181C101D026A2000000000C1
:104F60000000000000000000010203040607080919
:104F700000000000010203044C4544300000000022
:104F80006D795461736B30330000000057470000A7
:104F9000494D55005072696E744E616D6500000098
:104FA000757064617465000053686F6F74696E6733
:104FB00000000000D44F0008000000204C01000059
:104FC000AC070008F84F00084C010020EC46000038
:104FD0005A3C00089126C05A45D80E4B1C0C0C01B7
:104FE0002C1AAA01015DAA7F014AFE0F0115036870
:084FF000803F0210FF1324F4BE
:04000005080001AD41
:00000001FF
